{"contracts/Verifier.sol":{"Groth16Verifier":{"abi":[{"inputs":[{"internalType":"uint256[2]","name":"_pA","type":"uint256[2]"},{"internalType":"uint256[2][2]","name":"_pB","type":"uint256[2][2]"},{"internalType":"uint256[2]","name":"_pC","type":"uint256[2]"},{"internalType":"uint256[2]","name":"_pubSignals","type":"uint256[2]"}],"name":"verifyProof","outputs":[{"internalType":"bool","name":"","type":"bool"}],"stateMutability":"view","type":"function"}],"evm":{"bytecode":{"linkReferences":{},"object":"608060405234801561001057600080fd5b50610649806100206000396000f3fe608060405234801561001057600080fd5b506004361061002b5760003560e01c8063f5c9d69e14610030575b600080fd5b61004a60048036038101906100459190610574565b610060565b60405161005791906105f8565b60405180910390f35b60006104dd565b7f30644e72e131a029b85045b68181585d97816a916871ca8d3c208c16d87cfd478110610098576000805260206000f35b50565b600060405183815284602082015285604082015260408160608360076107d05a03fa9150816100ce576000805260206000f35b825160408201526020830151606082015260408360808360066107d05a03fa9150816100fe576000805260206000f35b505050505050565b600060808601600087017f1f47fc98b124edb94deba1c1f36462e3a62a7f2996e736c19826ce9e7e20593b81527f224b34bceb16785f611970640bdb5a7eefd6db804dda01bf7766245da073705960208201526101a960008801357f176dac0d9f112c10b34f9816c7b2e7be2a5ddcba091842bcdc2e4e029a2472417f1e2d124cf25f64bf9489940510044bd4932b3e85366ea03c70c64054a00dc5568461009b565b6101f960208801357f19291a57741cade2324362710eff61d547e8ca0eba8ac1a6886a934efd96b1d97f20709c6b6e7c089627b228b3aef4193f12a0f2d6998b9c89174936a713573f8f8461009b565b833582527f30644e72e131a029b85045b68181585d97816a916871ca8d3c208c16d87cfd4760208501357f30644e72e131a029b85045b68181585d97816a916871ca8d3c208c16d87cfd4703066020830152843560408301526020850135606083015260408501356080830152606085013560a08301527f1cfa76a4f8198885a8bf21eab13fab5f2b6f61b1532272e5740b5973e92037ae60c08301527f14f80705313ec2066904eab7150736ae40cc9d88d19d18607727c0757e0d7bea60e08301527f25db8f13103556dda98c6797898035423691183180b3e83b451e096b266b1c2b6101008301527f294e984f3ea5e572210ed21fdac573dd2be9beb2c98a9d38dafa7e00ba91e0306101208301527f122326837fd6983c9adfebad1222929121a7d74cdf3da0a9f54f293a290d09546101408301527f2344a978108f56417169a68932c43f0748b1392a30a4cbaeb8825ef414d15637610160830152600088015161018083015260206000018801516101a08301527f198e9393920d483a7260bfb731fb5d25f1aa493335a9e71297e485b7aef312c26101c08301527f1800deef121f1e76426a00665e5c4479674322d4f75edadd46debd5cd992f6ed6101e08301527f090689d0585ff075ec9e99ad690c3395bc4b313370b38ef355acdadcd122975b6102008301527f12c85ea5db8c6deb4aab71808dcb408fe3d1e7690c43d37b4ce6cc0166fa7daa610220830152853561024083015260208601356102608301527f0b6cb1bf38a6294a00ef87a536fb8aa28beba5363b9cdac2f3ad739981ee0eb56102808301527f05f7f6c825770e78d6bb98339eeb44448494b3d114cdbc4befff2a5960bc25c06102a08301527f09f8889d38126470c21e8312b7a8ab1b23036d2826d70a611a1adb9c96903d6e6102c08301527f1a1df425b26a8ce53aa4e085d337957e7188c741c02d39d4f566cbccbdb921fc6102e08301526020826103008460086107d05a03fa82518116935050505095945050505050565b60405161038081016040526104f56000840135610067565b6105026020840135610067565b61050f6040840135610067565b61051c818486888a610106565b8060005260206000f35b600080fd5b600080fd5b60008190508260206002028201111561054c5761054b61052b565b5b92915050565b60008190508260406002028201111561056e5761056d61052b565b5b92915050565b600080600080610140858703121561058f5761058e610526565b5b600061059d87828801610530565b94505060406105ae87828801610552565b93505060c06105bf87828801610530565b9250506101006105d187828801610530565b91505092959194509250565b60008115159050919050565b6105f2816105dd565b82525050565b600060208201905061060d60008301846105e9565b9291505056fea2646970667358221220bed0d88eee13435f2d0439b780405dae96390f8a65c542bab22bbf46c12410a264736f6c63430008140033","opcodes":"PUSH1 0x80 PUSH1 0x40 MSTORE CALLVALUE DUP1 ISZERO PUSH2 0x10 JUMPI PUSH1 0x0 DUP1 REVERT JUMPDEST POP PUSH2 0x649 DUP1 PUSH2 0x20 PUSH1 0x0 CODECOPY PUSH1 0x0 RETURN INVALID PUSH1 0x80 PUSH1 0x40 MSTORE CALLVALUE DUP1 ISZERO PUSH2 0x10 JUMPI PUSH1 0x0 DUP1 REVERT JUMPDEST POP PUSH1 0x4 CALLDATASIZE LT PUSH2 0x2B JUMPI PUSH1 0x0 CALLDATALOAD PUSH1 0xE0 SHR DUP1 PUSH4 0xF5C9D69E EQ PUSH2 0x30 JUMPI JUMPDEST PUSH1 0x0 DUP1 REVERT JUMPDEST PUSH2 0x4A PUSH1 0x4 DUP1 CALLDATASIZE SUB DUP2 ADD SWAP1 PUSH2 0x45 SWAP2 SWAP1 PUSH2 0x574 JUMP JUMPDEST PUSH2 0x60 JUMP JUMPDEST PUSH1 0x40 MLOAD PUSH2 0x57 SWAP2 SWAP1 PUSH2 0x5F8 JUMP JUMPDEST PUSH1 0x40 MLOAD DUP1 SWAP2 SUB SWAP1 RETURN JUMPDEST PUSH1 0x0 PUSH2 0x4DD JUMP JUMPDEST PUSH32 0x30644E72E131A029B85045B68181585D97816A916871CA8D3C208C16D87CFD47 DUP2 LT PUSH2 0x98 JUMPI PUSH1 0x0 DUP1 MSTORE PUSH1 0x20 PUSH1 0x0 RETURN JUMPDEST POP JUMP JUMPDEST PUSH1 0x0 PUSH1 0x40 MLOAD DUP4 DUP2 MSTORE DUP5 PUSH1 0x20 DUP3 ADD MSTORE DUP6 PUSH1 0x40 DUP3 ADD MSTORE PUSH1 0x40 DUP2 PUSH1 0x60 DUP4 PUSH1 0x7 PUSH2 0x7D0 GAS SUB STATICCALL SWAP2 POP DUP2 PUSH2 0xCE JUMPI PUSH1 0x0 DUP1 MSTORE PUSH1 0x20 PUSH1 0x0 RETURN JUMPDEST DUP3 MLOAD PUSH1 0x40 DUP3 ADD MSTORE PUSH1 0x20 DUP4 ADD MLOAD PUSH1 0x60 DUP3 ADD MSTORE PUSH1 0x40 DUP4 PUSH1 0x80 DUP4 PUSH1 0x6 PUSH2 0x7D0 GAS SUB STATICCALL SWAP2 POP DUP2 PUSH2 0xFE JUMPI PUSH1 0x0 DUP1 MSTORE PUSH1 0x20 PUSH1 0x0 RETURN JUMPDEST POP POP POP POP POP POP JUMP JUMPDEST PUSH1 0x0 PUSH1 0x80 DUP7 ADD PUSH1 0x0 DUP8 ADD PUSH32 0x1F47FC98B124EDB94DEBA1C1F36462E3A62A7F2996E736C19826CE9E7E20593B DUP2 MSTORE PUSH32 0x224B34BCEB16785F611970640BDB5A7EEFD6DB804DDA01BF7766245DA0737059 PUSH1 0x20 DUP3 ADD MSTORE PUSH2 0x1A9 PUSH1 0x0 DUP9 ADD CALLDATALOAD PUSH32 0x176DAC0D9F112C10B34F9816C7B2E7BE2A5DDCBA091842BCDC2E4E029A247241 PUSH32 0x1E2D124CF25F64BF9489940510044BD4932B3E85366EA03C70C64054A00DC556 DUP5 PUSH2 0x9B JUMP JUMPDEST PUSH2 0x1F9 PUSH1 0x20 DUP9 ADD CALLDATALOAD PUSH32 0x19291A57741CADE2324362710EFF61D547E8CA0EBA8AC1A6886A934EFD96B1D9 PUSH32 0x20709C6B6E7C089627B228B3AEF4193F12A0F2D6998B9C89174936A713573F8F DUP5 PUSH2 0x9B JUMP JUMPDEST DUP4 CALLDATALOAD DUP3 MSTORE PUSH32 0x30644E72E131A029B85045B68181585D97816A916871CA8D3C208C16D87CFD47 PUSH1 0x20 DUP6 ADD CALLDATALOAD PUSH32 0x30644E72E131A029B85045B68181585D97816A916871CA8D3C208C16D87CFD47 SUB MOD PUSH1 0x20 DUP4 ADD MSTORE DUP5 CALLDATALOAD PUSH1 0x40 DUP4 ADD MSTORE PUSH1 0x20 DUP6 ADD CALLDATALOAD PUSH1 0x60 DUP4 ADD MSTORE PUSH1 0x40 DUP6 ADD CALLDATALOAD PUSH1 0x80 DUP4 ADD MSTORE PUSH1 0x60 DUP6 ADD CALLDATALOAD PUSH1 0xA0 DUP4 ADD MSTORE PUSH32 0x1CFA76A4F8198885A8BF21EAB13FAB5F2B6F61B1532272E5740B5973E92037AE PUSH1 0xC0 DUP4 ADD MSTORE PUSH32 0x14F80705313EC2066904EAB7150736AE40CC9D88D19D18607727C0757E0D7BEA PUSH1 0xE0 DUP4 ADD MSTORE PUSH32 0x25DB8F13103556DDA98C6797898035423691183180B3E83B451E096B266B1C2B PUSH2 0x100 DUP4 ADD MSTORE PUSH32 0x294E984F3EA5E572210ED21FDAC573DD2BE9BEB2C98A9D38DAFA7E00BA91E030 PUSH2 0x120 DUP4 ADD MSTORE PUSH32 0x122326837FD6983C9ADFEBAD1222929121A7D74CDF3DA0A9F54F293A290D0954 PUSH2 0x140 DUP4 ADD MSTORE PUSH32 0x2344A978108F56417169A68932C43F0748B1392A30A4CBAEB8825EF414D15637 PUSH2 0x160 DUP4 ADD MSTORE PUSH1 0x0 DUP9 ADD MLOAD PUSH2 0x180 DUP4 ADD MSTORE PUSH1 0x20 PUSH1 0x0 ADD DUP9 ADD MLOAD PUSH2 0x1A0 DUP4 ADD MSTORE PUSH32 0x198E9393920D483A7260BFB731FB5D25F1AA493335A9E71297E485B7AEF312C2 PUSH2 0x1C0 DUP4 ADD MSTORE PUSH32 0x1800DEEF121F1E76426A00665E5C4479674322D4F75EDADD46DEBD5CD992F6ED PUSH2 0x1E0 DUP4 ADD MSTORE PUSH32 0x90689D0585FF075EC9E99AD690C3395BC4B313370B38EF355ACDADCD122975B PUSH2 0x200 DUP4 ADD MSTORE PUSH32 0x12C85EA5DB8C6DEB4AAB71808DCB408FE3D1E7690C43D37B4CE6CC0166FA7DAA PUSH2 0x220 DUP4 ADD MSTORE DUP6 CALLDATALOAD PUSH2 0x240 DUP4 ADD MSTORE PUSH1 0x20 DUP7 ADD CALLDATALOAD PUSH2 0x260 DUP4 ADD MSTORE PUSH32 0xB6CB1BF38A6294A00EF87A536FB8AA28BEBA5363B9CDAC2F3AD739981EE0EB5 PUSH2 0x280 DUP4 ADD MSTORE PUSH32 0x5F7F6C825770E78D6BB98339EEB44448494B3D114CDBC4BEFFF2A5960BC25C0 PUSH2 0x2A0 DUP4 ADD MSTORE PUSH32 0x9F8889D38126470C21E8312B7A8AB1B23036D2826D70A611A1ADB9C96903D6E PUSH2 0x2C0 DUP4 ADD MSTORE PUSH32 0x1A1DF425B26A8CE53AA4E085D337957E7188C741C02D39D4F566CBCCBDB921FC PUSH2 0x2E0 DUP4 ADD MSTORE PUSH1 0x20 DUP3 PUSH2 0x300 DUP5 PUSH1 0x8 PUSH2 0x7D0 GAS SUB STATICCALL DUP3 MLOAD DUP2 AND SWAP4 POP POP POP POP SWAP6 SWAP5 POP POP POP POP POP JUMP JUMPDEST PUSH1 0x40 MLOAD PUSH2 0x380 DUP2 ADD PUSH1 0x40 MSTORE PUSH2 0x4F5 PUSH1 0x0 DUP5 ADD CALLDATALOAD PUSH2 0x67 JUMP JUMPDEST PUSH2 0x502 PUSH1 0x20 DUP5 ADD CALLDATALOAD PUSH2 0x67 JUMP JUMPDEST PUSH2 0x50F PUSH1 0x40 DUP5 ADD CALLDATALOAD PUSH2 0x67 JUMP JUMPDEST PUSH2 0x51C DUP2 DUP5 DUP7 DUP9 DUP11 PUSH2 0x106 JUMP JUMPDEST DUP1 PUSH1 0x0 MSTORE PUSH1 0x20 PUSH1 0x0 RETURN JUMPDEST PUSH1 0x0 DUP1 REVERT JUMPDEST PUSH1 0x0 DUP1 REVERT JUMPDEST PUSH1 0x0 DUP2 SWAP1 POP DUP3 PUSH1 0x20 PUSH1 0x2 MUL DUP3 ADD GT ISZERO PUSH2 0x54C JUMPI PUSH2 0x54B PUSH2 0x52B JUMP JUMPDEST JUMPDEST SWAP3 SWAP2 POP POP JUMP JUMPDEST PUSH1 0x0 DUP2 SWAP1 POP DUP3 PUSH1 0x40 PUSH1 0x2 MUL DUP3 ADD GT ISZERO PUSH2 0x56E JUMPI PUSH2 0x56D PUSH2 0x52B JUMP JUMPDEST JUMPDEST SWAP3 SWAP2 POP POP JUMP JUMPDEST PUSH1 0x0 DUP1 PUSH1 0x0 DUP1 PUSH2 0x140 DUP6 DUP8 SUB SLT ISZERO PUSH2 0x58F JUMPI PUSH2 0x58E PUSH2 0x526 JUMP JUMPDEST JUMPDEST PUSH1 0x0 PUSH2 0x59D DUP8 DUP3 DUP9 ADD PUSH2 0x530 JUMP JUMPDEST SWAP5 POP POP PUSH1 0x40 PUSH2 0x5AE DUP8 DUP3 DUP9 ADD PUSH2 0x552 JUMP JUMPDEST SWAP4 POP POP PUSH1 0xC0 PUSH2 0x5BF DUP8 DUP3 DUP9 ADD PUSH2 0x530 JUMP JUMPDEST SWAP3 POP POP PUSH2 0x100 PUSH2 0x5D1 DUP8 DUP3 DUP9 ADD PUSH2 0x530 JUMP JUMPDEST SWAP2 POP POP SWAP3 SWAP6 SWAP2 SWAP5 POP SWAP3 POP JUMP JUMPDEST PUSH1 0x0 DUP2 ISZERO ISZERO SWAP1 POP SWAP2 SWAP1 POP JUMP JUMPDEST PUSH2 0x5F2 DUP2 PUSH2 0x5DD JUMP JUMPDEST DUP3 MSTORE POP POP JUMP JUMPDEST PUSH1 0x0 PUSH1 0x20 DUP3 ADD SWAP1 POP PUSH2 0x60D PUSH1 0x0 DUP4 ADD DUP5 PUSH2 0x5E9 JUMP JUMPDEST SWAP3 SWAP2 POP POP JUMP INVALID LOG2 PUSH5 0x6970667358 0x22 SLT KECCAK256 0xBE 0xD0 0xD8 DUP15 0xEE SGT NUMBER PUSH0 0x2D DIV CODECOPY 0xB7 DUP1 BLOCKHASH 0x5D 0xAE SWAP7 CODECOPY 0xF DUP11 PUSH6 0xC542BAB22BBF CHAINID 0xC1 0x24 LT LOG2 PUSH5 0x736F6C6343 STOP ADDMOD EQ STOP CALLER "},"methodIdentifiers":{"verifyProof(uint256[2],uint256[2][2],uint256[2],uint256[2])":"f5c9d69e"}}}}}