{
  "_format": "hh-sol-artifact-1",
  "contractName": "Groth16Verifier",
  "sourceName": "contracts/Verifier.sol",
  "abi": [
    {
      "inputs": [
        {
          "internalType": "uint256[2]",
          "name": "_pA",
          "type": "uint256[2]"
        },
        {
          "internalType": "uint256[2][2]",
          "name": "_pB",
          "type": "uint256[2][2]"
        },
        {
          "internalType": "uint256[2]",
          "name": "_pC",
          "type": "uint256[2]"
        },
        {
          "internalType": "uint256[2]",
          "name": "_pubSignals",
          "type": "uint256[2]"
        }
      ],
      "name": "verifyProof",
      "outputs": [
        {
          "internalType": "bool",
          "name": "",
          "type": "bool"
        }
      ],
      "stateMutability": "view",
      "type": "function"
    }
  ],
  "bytecode": "0x608060405234801561001057600080fd5b50610649806100206000396000f3fe608060405234801561001057600080fd5b506004361061002b5760003560e01c8063f5c9d69e14610030575b600080fd5b61004a60048036038101906100459190610574565b610060565b60405161005791906105f8565b60405180910390f35b60006104dd565b7f30644e72e131a029b85045b68181585d97816a916871ca8d3c208c16d87cfd478110610098576000805260206000f35b50565b600060405183815284602082015285604082015260408160608360076107d05a03fa9150816100ce576000805260206000f35b825160408201526020830151606082015260408360808360066107d05a03fa9150816100fe576000805260206000f35b505050505050565b600060808601600087017f1f47fc98b124edb94deba1c1f36462e3a62a7f2996e736c19826ce9e7e20593b81527f224b34bceb16785f611970640bdb5a7eefd6db804dda01bf7766245da073705960208201526101a960008801357f176dac0d9f112c10b34f9816c7b2e7be2a5ddcba091842bcdc2e4e029a2472417f1e2d124cf25f64bf9489940510044bd4932b3e85366ea03c70c64054a00dc5568461009b565b6101f960208801357f19291a57741cade2324362710eff61d547e8ca0eba8ac1a6886a934efd96b1d97f20709c6b6e7c089627b228b3aef4193f12a0f2d6998b9c89174936a713573f8f8461009b565b833582527f30644e72e131a029b85045b68181585d97816a916871ca8d3c208c16d87cfd4760208501357f30644e72e131a029b85045b68181585d97816a916871ca8d3c208c16d87cfd4703066020830152843560408301526020850135606083015260408501356080830152606085013560a08301527f1cfa76a4f8198885a8bf21eab13fab5f2b6f61b1532272e5740b5973e92037ae60c08301527f14f80705313ec2066904eab7150736ae40cc9d88d19d18607727c0757e0d7bea60e08301527f25db8f13103556dda98c6797898035423691183180b3e83b451e096b266b1c2b6101008301527f294e984f3ea5e572210ed21fdac573dd2be9beb2c98a9d38dafa7e00ba91e0306101208301527f122326837fd6983c9adfebad1222929121a7d74cdf3da0a9f54f293a290d09546101408301527f2344a978108f56417169a68932c43f0748b1392a30a4cbaeb8825ef414d15637610160830152600088015161018083015260206000018801516101a08301527f198e9393920d483a7260bfb731fb5d25f1aa493335a9e71297e485b7aef312c26101c08301527f1800deef121f1e76426a00665e5c4479674322d4f75edadd46debd5cd992f6ed6101e08301527f090689d0585ff075ec9e99ad690c3395bc4b313370b38ef355acdadcd122975b6102008301527f12c85ea5db8c6deb4aab71808dcb408fe3d1e7690c43d37b4ce6cc0166fa7daa610220830152853561024083015260208601356102608301527f0b6cb1bf38a6294a00ef87a536fb8aa28beba5363b9cdac2f3ad739981ee0eb56102808301527f05f7f6c825770e78d6bb98339eeb44448494b3d114cdbc4befff2a5960bc25c06102a08301527f09f8889d38126470c21e8312b7a8ab1b23036d2826d70a611a1adb9c96903d6e6102c08301527f1a1df425b26a8ce53aa4e085d337957e7188c741c02d39d4f566cbccbdb921fc6102e08301526020826103008460086107d05a03fa82518116935050505095945050505050565b60405161038081016040526104f56000840135610067565b6105026020840135610067565b61050f6040840135610067565b61051c818486888a610106565b8060005260206000f35b600080fd5b600080fd5b60008190508260206002028201111561054c5761054b61052b565b5b92915050565b60008190508260406002028201111561056e5761056d61052b565b5b92915050565b600080600080610140858703121561058f5761058e610526565b5b600061059d87828801610530565b94505060406105ae87828801610552565b93505060c06105bf87828801610530565b9250506101006105d187828801610530565b91505092959194509250565b60008115159050919050565b6105f2816105dd565b82525050565b600060208201905061060d60008301846105e9565b9291505056fea2646970667358221220bed0d88eee13435f2d0439b780405dae96390f8a65c542bab22bbf46c12410a264736f6c63430008140033",
  "linkReferences": {},
  "deployedLinkReferences": {}
}